{
  "contractName": "Cache",
  "abi": [
    {
      "constant": false,
      "inputs": [],
      "name": "withdraw",
      "outputs": [
        {
          "name": "",
          "type": "bool"
        }
      ],
      "payable": false,
      "stateMutability": "nonpayable",
      "type": "function"
    },
    {
      "constant": false,
      "inputs": [
        {
          "name": "newSecret",
          "type": "string"
        }
      ],
      "name": "changeSecret",
      "outputs": [
        {
          "name": "",
          "type": "bool"
        }
      ],
      "payable": false,
      "stateMutability": "nonpayable",
      "type": "function"
    },
    {
      "constant": false,
      "inputs": [
        {
          "name": "secret",
          "type": "string"
        }
      ],
      "name": "claimCache",
      "outputs": [
        {
          "name": "",
          "type": "bool"
        }
      ],
      "payable": false,
      "stateMutability": "nonpayable",
      "type": "function"
    },
    {
      "constant": true,
      "inputs": [],
      "name": "owner",
      "outputs": [
        {
          "name": "",
          "type": "address"
        }
      ],
      "payable": false,
      "stateMutability": "view",
      "type": "function"
    },
    {
      "constant": true,
      "inputs": [],
      "name": "activeStatus",
      "outputs": [
        {
          "name": "",
          "type": "bool"
        }
      ],
      "payable": false,
      "stateMutability": "view",
      "type": "function"
    },
    {
      "constant": true,
      "inputs": [],
      "name": "fundsBalance",
      "outputs": [
        {
          "name": "",
          "type": "uint256"
        }
      ],
      "payable": false,
      "stateMutability": "view",
      "type": "function"
    },
    {
      "constant": false,
      "inputs": [
        {
          "name": "newStatus",
          "type": "bool"
        }
      ],
      "name": "changeStatus",
      "outputs": [
        {
          "name": "",
          "type": "bool"
        }
      ],
      "payable": false,
      "stateMutability": "nonpayable",
      "type": "function"
    },
    {
      "constant": true,
      "inputs": [],
      "name": "admin",
      "outputs": [
        {
          "name": "",
          "type": "address"
        }
      ],
      "payable": false,
      "stateMutability": "view",
      "type": "function"
    },
    {
      "inputs": [
        {
          "name": "_owner",
          "type": "address"
        },
        {
          "name": "secret",
          "type": "string"
        }
      ],
      "payable": false,
      "stateMutability": "nonpayable",
      "type": "constructor"
    },
    {
      "payable": true,
      "stateMutability": "payable",
      "type": "fallback"
    },
    {
      "anonymous": false,
      "inputs": [
        {
          "indexed": false,
          "name": "claimant",
          "type": "address"
        },
        {
          "indexed": false,
          "name": "amount",
          "type": "uint256"
        }
      ],
      "name": "CacheClaimed",
      "type": "event"
    },
    {
      "anonymous": false,
      "inputs": [
        {
          "indexed": false,
          "name": "newStatus",
          "type": "bool"
        }
      ],
      "name": "StatusChanged",
      "type": "event"
    },
    {
      "anonymous": false,
      "inputs": [
        {
          "indexed": false,
          "name": "amountAdded",
          "type": "uint256"
        },
        {
          "indexed": false,
          "name": "newBalance",
          "type": "uint256"
        }
      ],
      "name": "FundsAdded",
      "type": "event"
    },
    {
      "anonymous": false,
      "inputs": [
        {
          "indexed": false,
          "name": "amount",
          "type": "uint256"
        }
      ],
      "name": "Withdrawal",
      "type": "event"
    }
  ],
  "bytecode": "0x60606040526001600460006101000a81548160ff021916908315150217905550341561002a57600080fd5b604051610a28380380610a2883398101604052808051906020019091908051820191905050816000806101000a81548173ffffffffffffffffffffffffffffffffffffffff021916908373ffffffffffffffffffffffffffffffffffffffff16021790555033600160006101000a81548173ffffffffffffffffffffffffffffffffffffffff021916908373ffffffffffffffffffffffffffffffffffffffff160217905550806040518082805190602001908083835b60208310151561010657805182526020820191506020810190506020830392506100e1565b6001836020036101000a03801982511681845116808217855250505050505090500191505060405180910390206003816000191690555050506108da8061014e6000396000f30060606040526004361061008e576000357c0100000000000000000000000000000000000000000000000000000000900463ffffffff1680633ccfd60b1461015c57806351d8ef43146101895780637947a323146101fe5780638da5cb5b1461027357806393458030146102c85780639454932c146102f55780639b3de49b1461031e578063f851a4401461035b575b6000809054906101000a900473ffffffffffffffffffffffffffffffffffffffff1673ffffffffffffffffffffffffffffffffffffffff163373ffffffffffffffffffffffffffffffffffffffff161415156100e957600080fd5b600460009054906101000a900460ff16151561010457600080fd5b7ff5e4934928a1e45d88c7a5aa2661fe0a801ca5017922e15122d74f1880155e1a343073ffffffffffffffffffffffffffffffffffffffff1631604051808381526020018281526020019250505060405180910390a1005b341561016757600080fd5b61016f6103b0565b604051808215151515815260200191505060405180910390f35b341561019457600080fd5b6101e4600480803590602001908201803590602001908080601f01602080910402602001604051908101604052809392919081815260200183838082843782019150505050505091905050610501565b604051808215151515815260200191505060405180910390f35b341561020957600080fd5b610259600480803590602001908201803590602001908080601f016020809104026020016040519081016040528093929190818152602001838380828437820191505050505050919050506105d4565b604051808215151515815260200191505060405180910390f35b341561027e57600080fd5b610286610771565b604051808273ffffffffffffffffffffffffffffffffffffffff1673ffffffffffffffffffffffffffffffffffffffff16815260200191505060405180910390f35b34156102d357600080fd5b6102db610796565b604051808215151515815260200191505060405180910390f35b341561030057600080fd5b6103086107a9565b6040518082815260200191505060405180910390f35b341561032957600080fd5b610341600480803515159060200190919050506107af565b604051808215151515815260200191505060405180910390f35b341561036657600080fd5b61036e610888565b604051808273ffffffffffffffffffffffffffffffffffffffff1673ffffffffffffffffffffffffffffffffffffffff16815260200191505060405180910390f35b60008060009054906101000a900473ffffffffffffffffffffffffffffffffffffffff1673ffffffffffffffffffffffffffffffffffffffff163373ffffffffffffffffffffffffffffffffffffffff1614151561040d57600080fd5b60003073ffffffffffffffffffffffffffffffffffffffff16311415151561043457600080fd5b7f4e70a604b23a8edee2b1d0a656e9b9c00b73ad8bb1afc2c59381ee9f69197de73073ffffffffffffffffffffffffffffffffffffffff16316040518082815260200191505060405180910390a16000809054906101000a900473ffffffffffffffffffffffffffffffffffffffff1673ffffffffffffffffffffffffffffffffffffffff166108fc3073ffffffffffffffffffffffffffffffffffffffff16319081150290604051600060405180830381858888f1935050505015156104fa57600080fd5b6001905090565b60008060009054906101000a900473ffffffffffffffffffffffffffffffffffffffff1673ffffffffffffffffffffffffffffffffffffffff163373ffffffffffffffffffffffffffffffffffffffff1614151561055e57600080fd5b816040518082805190602001908083835b602083101515610594578051825260208201915060208101905060208303925061056f565b6001836020036101000a03801982511681845116808217855250505050505090500191505060405180910390206003816000191690555060019050919050565b6000600460009054906101000a900460ff1615156105f157600080fd5b60003073ffffffffffffffffffffffffffffffffffffffff16311415151561061857600080fd5b60035460001916826040518082805190602001908083835b6020831015156106555780518252602082019150602081019050602083039250610630565b6001836020036101000a03801982511681845116808217855250505050505090500191505060405180910390206000191614151561069257600080fd5b7f35e5d9e2d8e08aeb9f5d62223b49a067886fc12ab5b39e84fd3ed8742ff66a7f333073ffffffffffffffffffffffffffffffffffffffff1631604051808373ffffffffffffffffffffffffffffffffffffffff1673ffffffffffffffffffffffffffffffffffffffff1681526020018281526020019250505060405180910390a13373ffffffffffffffffffffffffffffffffffffffff166108fc3073ffffffffffffffffffffffffffffffffffffffff16319081150290604051600060405180830381858888f19350505050151561076857fe5b60019050919050565b6000809054906101000a900473ffffffffffffffffffffffffffffffffffffffff1681565b600460009054906101000a900460ff1681565b60025481565b60008060009054906101000a900473ffffffffffffffffffffffffffffffffffffffff1673ffffffffffffffffffffffffffffffffffffffff163373ffffffffffffffffffffffffffffffffffffffff1614151561080c57600080fd5b600460009054906101000a900460ff1615158215151415151561082e57600080fd5b7f4dcbe1841ee9bd9c888e46c0b35574429b1c0f1071806180028dee2f9a10643082604051808215151515815260200191505060405180910390a181600460006101000a81548160ff021916908315150217905550919050565b600160009054906101000a900473ffffffffffffffffffffffffffffffffffffffff16815600a165627a7a72305820b40ddd68bdea2c199cff328b16a0aa6b96473162634a464aa05b94772a8a6b490029",
  "source": "pragma solidity ^0.4.17;\n\ncontract Cache {\n    \n    address public owner;\n    address public admin;\n    uint public fundsBalance;\n    bytes32 secretHash;\n    \n    bool public activeStatus = true;\n\n    event CacheClaimed(address claimant, uint amount);\n    event StatusChanged(bool newStatus);\n    event FundsAdded(uint amountAdded, uint newBalance);\n    event Withdrawal(uint amount);\n    \n    modifier onlyOwner {\n        require(msg.sender == owner);\n        _;\n    }\n    \n    function Cache(address _owner, string secret)\n        public\n    {\n        owner = _owner;\n        admin = msg.sender;\n        secretHash = keccak256(secret);\n    }\n    \n    //fallback function for accepting Ether\n    function ()\n        public\n        onlyOwner\n        payable \n    {\n        require(activeStatus);\n        FundsAdded(msg.value, this.balance);\n    }\n        \n    function claimCache (string secret)\n        public\n        returns (bool)\n    {\n        require(activeStatus);\n        require(this.balance != 0);\n        require(keccak256(secret) == secretHash);\n\n        CacheClaimed(msg.sender, this.balance);\n        assert(msg.sender.send(this.balance));\n        \n        return true;\n    }\n    \n    function changeSecret(string newSecret)\n        public\n        onlyOwner\n        returns (bool)\n    {\n        secretHash = keccak256(newSecret);\n        return true;\n    }\n    \n    \n    function changeStatus(bool newStatus)\n        public\n        onlyOwner\n        returns (bool)\n    {\n        require(newStatus != activeStatus);\n        StatusChanged(newStatus);\n        activeStatus = newStatus;\n    }\n    \n    function withdraw()\n        public\n        onlyOwner\n        returns (bool)\n    {\n        require(this.balance != 0);\n        Withdrawal(this.balance);\n        owner.transfer(this.balance);\n        return true;\n    }\n    \n}\n",
  "sourcePath": "/home/michael/Documents/Ethereum/hack/TerraDropCache/contracts/Cache.sol",
  "compiler": {
    "name": "solc",
    "version": "0.4.18+commit.9cf6e910.Emscripten.clang"
  },
  "schemaVersion": "1.0.1",
  "updatedAt": "2018-02-25T06:32:01.462Z"
}