{
  "contractName": "TerraDrop",
  "abi": [
    {
      "constant": true,
      "inputs": [
        {
          "name": "",
          "type": "uint256"
        }
      ],
      "name": "deployedCaches",
      "outputs": [
        {
          "name": "",
          "type": "address"
        }
      ],
      "payable": false,
      "stateMutability": "view",
      "type": "function"
    },
    {
      "constant": false,
      "inputs": [],
      "name": "TerraDropDeploy",
      "outputs": [],
      "payable": false,
      "stateMutability": "nonpayable",
      "type": "function"
    },
    {
      "constant": true,
      "inputs": [],
      "name": "owner",
      "outputs": [
        {
          "name": "",
          "type": "address"
        }
      ],
      "payable": false,
      "stateMutability": "view",
      "type": "function"
    },
    {
      "constant": false,
      "inputs": [
        {
          "name": "newStatus",
          "type": "bool"
        }
      ],
      "name": "changeAllStatus",
      "outputs": [],
      "payable": false,
      "stateMutability": "nonpayable",
      "type": "function"
    },
    {
      "constant": false,
      "inputs": [
        {
          "name": "secret",
          "type": "string"
        }
      ],
      "name": "createCache",
      "outputs": [
        {
          "name": "",
          "type": "address"
        }
      ],
      "payable": true,
      "stateMutability": "payable",
      "type": "function"
    },
    {
      "constant": false,
      "inputs": [
        {
          "name": "cacheAddress",
          "type": "address"
        },
        {
          "name": "status",
          "type": "bool"
        }
      ],
      "name": "changeStatus",
      "outputs": [],
      "payable": false,
      "stateMutability": "nonpayable",
      "type": "function"
    },
    {
      "anonymous": false,
      "inputs": [
        {
          "indexed": false,
          "name": "newCache",
          "type": "address"
        },
        {
          "indexed": false,
          "name": "_owner",
          "type": "address"
        },
        {
          "indexed": false,
          "name": "initialBalance",
          "type": "uint256"
        }
      ],
      "name": "CacheCreated",
      "type": "event"
    }
  ],
  "bytecode": "0x6060604052341561000f57600080fd5b6112fe8061001e6000396000f300606060405260043610610078576000357c0100000000000000000000000000000000000000000000000000000000900463ffffffff1680630e24625a1461007d5780637f50373c146100e05780638da5cb5b146100f5578063a69470d91461014a578063ab7ed77d1461016f578063be92e99514610201575b600080fd5b341561008857600080fd5b61009e6004808035906020019091905050610245565b604051808273ffffffffffffffffffffffffffffffffffffffff1673ffffffffffffffffffffffffffffffffffffffff16815260200191505060405180910390f35b34156100eb57600080fd5b6100f3610284565b005b341561010057600080fd5b6101086102c6565b604051808273ffffffffffffffffffffffffffffffffffffffff1673ffffffffffffffffffffffffffffffffffffffff16815260200191505060405180910390f35b341561015557600080fd5b61016d600480803515159060200190919050506102eb565b005b6101bf600480803590602001908201803590602001908080601f016020809104026020016040519081016040528093929190818152602001838380828437820191505050505050919050506104dc565b604051808273ffffffffffffffffffffffffffffffffffffffff1673ffffffffffffffffffffffffffffffffffffffff16815260200191505060405180910390f35b341561020c57600080fd5b610243600480803573ffffffffffffffffffffffffffffffffffffffff1690602001909190803515159060200190919050506106ee565b005b60018181548110151561025457fe5b90600052602060002090016000915054906101000a900473ffffffffffffffffffffffffffffffffffffffff1681565b336000806101000a81548173ffffffffffffffffffffffffffffffffffffffff021916908373ffffffffffffffffffffffffffffffffffffffff160217905550565b6000809054906101000a900473ffffffffffffffffffffffffffffffffffffffff1681565b6000806000809054906101000a900473ffffffffffffffffffffffffffffffffffffffff1673ffffffffffffffffffffffffffffffffffffffff163373ffffffffffffffffffffffffffffffffffffffff1614151561034957600080fd5b600091505b6001805490508210156104d75760018281548110151561036a57fe5b906000526020600020900160009054906101000a900473ffffffffffffffffffffffffffffffffffffffff1690508215158173ffffffffffffffffffffffffffffffffffffffff1663934580306000604051602001526040518163ffffffff167c0100000000000000000000000000000000000000000000000000000000028152600401602060405180830381600087803b151561040757600080fd5b6102c65a03f1151561041857600080fd5b5050506040518051905015151415156104ca578073ffffffffffffffffffffffffffffffffffffffff16639b3de49b846000604051602001526040518263ffffffff167c01000000000000000000000000000000000000000000000000000000000281526004018082151515158152602001915050602060405180830381600087803b15156104a657600080fd5b6102c65a03f115156104b757600080fd5b5050506040518051905015156104c957fe5b5b818060010192505061034e565b505050565b60008033836104e9610849565b808373ffffffffffffffffffffffffffffffffffffffff1673ffffffffffffffffffffffffffffffffffffffff16815260200180602001828103825283818151815260200191508051906020019080838360005b8381101561055857808201518184015260208101905061053d565b50505050905090810190601f1680156105855780820380516001836020036101000a031916815260200191505b509350505050604051809103906000f08015156105a157600080fd5b90508073ffffffffffffffffffffffffffffffffffffffff166108fc349081150290604051600060405180830381858888f1935050505015156105e357600080fd5b600180548060010182816105f79190610859565b9160005260206000209001600083909190916101000a81548173ffffffffffffffffffffffffffffffffffffffff021916908373ffffffffffffffffffffffffffffffffffffffff160217905550507f2d279438ef9f337ad7c69788a2b2e75d341cea1590140b329601ddcb17ba65e2813334604051808473ffffffffffffffffffffffffffffffffffffffff1673ffffffffffffffffffffffffffffffffffffffff1681526020018373ffffffffffffffffffffffffffffffffffffffff1673ffffffffffffffffffffffffffffffffffffffff168152602001828152602001935050505060405180910390a180915050919050565b60008060009054906101000a900473ffffffffffffffffffffffffffffffffffffffff1673ffffffffffffffffffffffffffffffffffffffff163373ffffffffffffffffffffffffffffffffffffffff1614151561074b57600080fd5b600260008473ffffffffffffffffffffffffffffffffffffffff1673ffffffffffffffffffffffffffffffffffffffff16815260200190815260200160002060009054906101000a900460ff1615156107a357600080fd5b8290508073ffffffffffffffffffffffffffffffffffffffff16639b3de49b836000604051602001526040518263ffffffff167c01000000000000000000000000000000000000000000000000000000000281526004018082151515158152602001915050602060405180830381600087803b151561082157600080fd5b6102c65a03f1151561083257600080fd5b50505060405180519050151561084457fe5b505050565b604051610a28806108ab83390190565b8154818355818115116108805781836000526020600020918201910161087f9190610885565b5b505050565b6108a791905b808211156108a357600081600090555060010161088b565b5090565b90560060606040526001600460006101000a81548160ff021916908315150217905550341561002a57600080fd5b604051610a28380380610a2883398101604052808051906020019091908051820191905050816000806101000a81548173ffffffffffffffffffffffffffffffffffffffff021916908373ffffffffffffffffffffffffffffffffffffffff16021790555033600160006101000a81548173ffffffffffffffffffffffffffffffffffffffff021916908373ffffffffffffffffffffffffffffffffffffffff160217905550806040518082805190602001908083835b60208310151561010657805182526020820191506020810190506020830392506100e1565b6001836020036101000a03801982511681845116808217855250505050505090500191505060405180910390206003816000191690555050506108da8061014e6000396000f30060606040526004361061008e576000357c0100000000000000000000000000000000000000000000000000000000900463ffffffff1680633ccfd60b1461015c57806351d8ef43146101895780637947a323146101fe5780638da5cb5b1461027357806393458030146102c85780639454932c146102f55780639b3de49b1461031e578063f851a4401461035b575b6000809054906101000a900473ffffffffffffffffffffffffffffffffffffffff1673ffffffffffffffffffffffffffffffffffffffff163373ffffffffffffffffffffffffffffffffffffffff161415156100e957600080fd5b600460009054906101000a900460ff16151561010457600080fd5b7ff5e4934928a1e45d88c7a5aa2661fe0a801ca5017922e15122d74f1880155e1a343073ffffffffffffffffffffffffffffffffffffffff1631604051808381526020018281526020019250505060405180910390a1005b341561016757600080fd5b61016f6103b0565b604051808215151515815260200191505060405180910390f35b341561019457600080fd5b6101e4600480803590602001908201803590602001908080601f01602080910402602001604051908101604052809392919081815260200183838082843782019150505050505091905050610501565b604051808215151515815260200191505060405180910390f35b341561020957600080fd5b610259600480803590602001908201803590602001908080601f016020809104026020016040519081016040528093929190818152602001838380828437820191505050505050919050506105d4565b604051808215151515815260200191505060405180910390f35b341561027e57600080fd5b610286610771565b604051808273ffffffffffffffffffffffffffffffffffffffff1673ffffffffffffffffffffffffffffffffffffffff16815260200191505060405180910390f35b34156102d357600080fd5b6102db610796565b604051808215151515815260200191505060405180910390f35b341561030057600080fd5b6103086107a9565b6040518082815260200191505060405180910390f35b341561032957600080fd5b610341600480803515159060200190919050506107af565b604051808215151515815260200191505060405180910390f35b341561036657600080fd5b61036e610888565b604051808273ffffffffffffffffffffffffffffffffffffffff1673ffffffffffffffffffffffffffffffffffffffff16815260200191505060405180910390f35b60008060009054906101000a900473ffffffffffffffffffffffffffffffffffffffff1673ffffffffffffffffffffffffffffffffffffffff163373ffffffffffffffffffffffffffffffffffffffff1614151561040d57600080fd5b60003073ffffffffffffffffffffffffffffffffffffffff16311415151561043457600080fd5b7f4e70a604b23a8edee2b1d0a656e9b9c00b73ad8bb1afc2c59381ee9f69197de73073ffffffffffffffffffffffffffffffffffffffff16316040518082815260200191505060405180910390a16000809054906101000a900473ffffffffffffffffffffffffffffffffffffffff1673ffffffffffffffffffffffffffffffffffffffff166108fc3073ffffffffffffffffffffffffffffffffffffffff16319081150290604051600060405180830381858888f1935050505015156104fa57600080fd5b6001905090565b60008060009054906101000a900473ffffffffffffffffffffffffffffffffffffffff1673ffffffffffffffffffffffffffffffffffffffff163373ffffffffffffffffffffffffffffffffffffffff1614151561055e57600080fd5b816040518082805190602001908083835b602083101515610594578051825260208201915060208101905060208303925061056f565b6001836020036101000a03801982511681845116808217855250505050505090500191505060405180910390206003816000191690555060019050919050565b6000600460009054906101000a900460ff1615156105f157600080fd5b60003073ffffffffffffffffffffffffffffffffffffffff16311415151561061857600080fd5b60035460001916826040518082805190602001908083835b6020831015156106555780518252602082019150602081019050602083039250610630565b6001836020036101000a03801982511681845116808217855250505050505090500191505060405180910390206000191614151561069257600080fd5b7f35e5d9e2d8e08aeb9f5d62223b49a067886fc12ab5b39e84fd3ed8742ff66a7f333073ffffffffffffffffffffffffffffffffffffffff1631604051808373ffffffffffffffffffffffffffffffffffffffff1673ffffffffffffffffffffffffffffffffffffffff1681526020018281526020019250505060405180910390a13373ffffffffffffffffffffffffffffffffffffffff166108fc3073ffffffffffffffffffffffffffffffffffffffff16319081150290604051600060405180830381858888f19350505050151561076857fe5b60019050919050565b6000809054906101000a900473ffffffffffffffffffffffffffffffffffffffff1681565b600460009054906101000a900460ff1681565b60025481565b60008060009054906101000a900473ffffffffffffffffffffffffffffffffffffffff1673ffffffffffffffffffffffffffffffffffffffff163373ffffffffffffffffffffffffffffffffffffffff1614151561080c57600080fd5b600460009054906101000a900460ff1615158215151415151561082e57600080fd5b7f4dcbe1841ee9bd9c888e46c0b35574429b1c0f1071806180028dee2f9a10643082604051808215151515815260200191505060405180910390a181600460006101000a81548160ff021916908315150217905550919050565b600160009054906101000a900473ffffffffffffffffffffffffffffffffffffffff16815600a165627a7a72305820b40ddd68bdea2c199cff328b16a0aa6b96473162634a464aa05b94772a8a6b490029a165627a7a72305820a77267669b69d29e4edbf8de55ce1b464ec6ab028824cd6076add031fb9b2af70029",
  "source": "pragma solidity ^0.4.17;\n\nimport \"./Cache.sol\";\n\ncontract TerraDrop {\n    \n    address public owner;\n    address[] public deployedCaches;\n    mapping(address => bool) caches;\n    \n    event CacheCreated(address newCache, address _owner, uint initialBalance);\n    \n    modifier onlyOwner {\n        require(msg.sender == owner);\n        _;\n    }\n    \n    function TerraDropDeploy ()\n        public\n    {\n        owner = msg.sender;\n    }\n    \n    function createCache(string secret)\n        public\n        payable\n        returns (address)\n    {\n        address newCache = new Cache(msg.sender, secret);\n        newCache.transfer(msg.value);\n        deployedCaches.push(newCache);\n        CacheCreated(newCache, msg.sender, msg.value);\n        return newCache;\n    }\n    \n    function changeStatus (address cacheAddress, bool status)\n        public\n        onlyOwner\n    {\n        require(caches[cacheAddress]);\n        Cache cacheInstance = Cache(cacheAddress);\n        assert(cacheInstance.changeStatus(status));\n    }\n    \n    function changeAllStatus (bool newStatus)\n        public\n        onlyOwner\n    {\n        for(uint i = 0; i < deployedCaches.length; i++)\n        {\n             Cache cacheInstance = Cache(deployedCaches[i]);\n             if(cacheInstance.activeStatus() != newStatus)\n             {\n                assert(cacheInstance.changeStatus(newStatus));\n             }\n        }\n    }\n    \n}\n\n\n",
  "sourcePath": "/home/michael/Documents/Ethereum/hack/TerraDropCache/contracts/TerraDrop.sol",
  "compiler": {
    "name": "solc",
    "version": "0.4.18+commit.9cf6e910.Emscripten.clang"
  },
  "schemaVersion": "1.0.1",
  "updatedAt": "2018-02-25T06:32:01.462Z"
}